{
  "contractName": "Election",
  "abi": [
    {
      "inputs": [
        {
          "internalType": "string[]",
          "name": "optionNames",
          "type": "string[]"
        }
      ],
      "payable": false,
      "stateMutability": "nonpayable",
      "type": "constructor"
    },
    {
      "constant": false,
      "inputs": [
        {
          "internalType": "uint256",
          "name": "secTillDeadLine",
          "type": "uint256"
        }
      ],
      "name": "startVoting",
      "outputs": [],
      "payable": false,
      "stateMutability": "nonpayable",
      "type": "function"
    },
    {
      "constant": false,
      "inputs": [
        {
          "internalType": "uint256",
          "name": "option",
          "type": "uint256"
        }
      ],
      "name": "vote",
      "outputs": [],
      "payable": false,
      "stateMutability": "nonpayable",
      "type": "function"
    },
    {
      "constant": true,
      "inputs": [],
      "name": "viewOptions",
      "outputs": [
        {
          "internalType": "string[]",
          "name": "",
          "type": "string[]"
        }
      ],
      "payable": false,
      "stateMutability": "view",
      "type": "function"
    },
    {
      "constant": true,
      "inputs": [],
      "name": "viewResults",
      "outputs": [
        {
          "internalType": "string",
          "name": "",
          "type": "string"
        },
        {
          "internalType": "uint256",
          "name": "",
          "type": "uint256"
        },
        {
          "internalType": "uint256",
          "name": "",
          "type": "uint256"
        }
      ],
      "payable": false,
      "stateMutability": "view",
      "type": "function"
    }
  ],
  "bytecode": "0x608060405260006003553480156200001657600080fd5b5060405162000ef138038062000ef183398181016040526200003c9190810190620002ad565b336000806101000a81548173ffffffffffffffffffffffffffffffffffffffff021916908373ffffffffffffffffffffffffffffffffffffffff16021790555060008090505b81518110156200011d5760026040518060400160405280848481518110620000a657fe5b6020026020010151815260200160008152509080600181540180825580915050906001820390600052602060002090600202016000909192909190915060008201518160000190805190602001906200010192919062000125565b5060208201518160010155505050808060010191505062000082565b5050620003ac565b828054600181600116156101000203166002900490600052602060002090601f016020900481019282601f106200016857805160ff191683800117855562000199565b8280016001018555821562000199579182015b82811115620001985782518255916020019190600101906200017b565b5b509050620001a89190620001ac565b5090565b620001d191905b80821115620001cd576000816000905550600101620001b3565b5090565b90565b600082601f830112620001e657600080fd5b8151620001fd620001f78262000320565b620002f2565b9150818183526020840193506020810190508360005b838110156200024757815186016200022c888262000251565b84526020840193506020830192505060018101905062000213565b5050505092915050565b600082601f8301126200026357600080fd5b81516200027a620002748262000349565b620002f2565b915080825260208301602083018583830111156200029757600080fd5b620002a483828462000376565b50505092915050565b600060208284031215620002c057600080fd5b600082015167ffffffffffffffff811115620002db57600080fd5b620002e984828501620001d4565b91505092915050565b6000604051905081810181811067ffffffffffffffff821117156200031657600080fd5b8060405250919050565b600067ffffffffffffffff8211156200033857600080fd5b602082029050602081019050919050565b600067ffffffffffffffff8211156200036157600080fd5b601f19601f8301169050602081019050919050565b60005b838110156200039657808201518184015260208101905062000379565b83811115620003a6576000848401525b50505050565b610b3580620003bc6000396000f3fe608060405234801561001057600080fd5b506004361061004c5760003560e01c80630121b93f146100515780633d2f5bda1461006d578063c0db3c6014610089578063d55ab095146100a7575b600080fd5b61006b600480360361006691908101906106bd565b6100c7565b005b610087600480360361008291908101906106bd565b6102f9565b005b610091610394565b60405161009e919061093c565b60405180910390f35b6100af6104c9565b6040516100be9392919061095e565b60405180910390f35b60035442111561010c576040517f08c379a0000000000000000000000000000000000000000000000000000000008152600401610103906109dc565b60405180910390fd5b6002805490508110610153576040517f08c379a000000000000000000000000000000000000000000000000000000000815260040161014a9061099c565b60405180910390fd5b600033905060011515600160008373ffffffffffffffffffffffffffffffffffffffff1673ffffffffffffffffffffffffffffffffffffffff16815260200190815260200160002060000160009054906101000a900460ff1615151415610226576002600160008373ffffffffffffffffffffffffffffffffffffffff1673ffffffffffffffffffffffffffffffffffffffff168152602001908152602001600020600101548154811061020357fe5b906000526020600020906002020160010160008154809291906001900391905055505b60018060008373ffffffffffffffffffffffffffffffffffffffff1673ffffffffffffffffffffffffffffffffffffffff16815260200190815260200160002060000160006101000a81548160ff02191690831515021790555081600160008373ffffffffffffffffffffffffffffffffffffffff1673ffffffffffffffffffffffffffffffffffffffff16815260200190815260200160002060010181905550600282815481106102d457fe5b9060005260206000209060020201600101600081548092919060010191905055505050565b6000809054906101000a900473ffffffffffffffffffffffffffffffffffffffff1673ffffffffffffffffffffffffffffffffffffffff163373ffffffffffffffffffffffffffffffffffffffff1614610388576040517f08c379a000000000000000000000000000000000000000000000000000000000815260040161037f906109fc565b60405180910390fd5b80420160038190555050565b6060806002805490506040519080825280602002602001820160405280156103d057816020015b60608152602001906001900390816103bb5790505b50905060008090505b6002805490508110156104c157600281815481106103f357fe5b90600052602060002090600202016000018054600181600116156101000203166002900480601f0160208091040260200160405190810160405280929190818152602001828054600181600116156101000203166002900480156104985780601f1061046d57610100808354040283529160200191610498565b820191906000526020600020905b81548152906001019060200180831161047b57829003601f168201915b50505050508282815181106104a957fe5b602002602001018190525080806001019150506103d9565b508091505090565b606060008060006003541180156104e1575060035442115b610520576040517f08c379a0000000000000000000000000000000000000000000000000000000008152600401610517906109bc565b60405180910390fd5b6000600260008154811061053057fe5b9060005260206000209060020201600101549050600081905060008090506000600190505b6002805490508110156105dd57836002828154811061057057fe5b90600052602060002090600202016001015411156105ad576002818154811061059557fe5b90600052602060002090600202016001015493508091505b600281815481106105ba57fe5b906000526020600020906002020160010154830192508080600101915050610555565b50600281815481106105eb57fe5b90600052602060002090600202016000018284828054600181600116156101000203166002900480601f0160208091040260200160405190810160405280929190818152602001828054600181600116156101000203166002900480156106935780601f1061066857610100808354040283529160200191610693565b820191906000526020600020905b81548152906001019060200180831161067657829003601f168201915b50505050509250955095509550505050909192565b6000813590506106b781610adb565b92915050565b6000602082840312156106cf57600080fd5b60006106dd848285016106a8565b91505092915050565b60006106f283836107a8565b905092915050565b600061070582610a2c565b61070f8185610a5a565b93508360208202850161072185610a1c565b8060005b8581101561075d578484038952815161073e85826106e6565b945061074983610a4d565b925060208a01995050600181019050610725565b50829750879550505050505092915050565b600061077a82610a42565b6107848185610a7c565b9350610794818560208601610a97565b61079d81610aca565b840191505092915050565b60006107b382610a37565b6107bd8185610a6b565b93506107cd818560208601610a97565b6107d681610aca565b840191505092915050565b60006107ee601083610a7c565b91507f496e76616c6c6964206f7074696f6e21000000000000000000000000000000006000830152602082019050919050565b600061082e602583610a7c565b91507f54686520766f74696e672070726f6365737320686173206e6f7420656e64656460008301527f20796574210000000000000000000000000000000000000000000000000000006020830152604082019050919050565b6000610894601983610a7c565b91507f596f7520617265206e6f742061626c6520746f20766f746521000000000000006000830152602082019050919050565b60006108d4603283610a7c565b91507f596f7520646f206e6f7420686176652074686520726967687420746f20696e6960008301527f7469617465207468697320616374696f6e2100000000000000000000000000006020830152604082019050919050565b61093681610a8d565b82525050565b6000602082019050818103600083015261095681846106fa565b905092915050565b60006060820190508181036000830152610978818661076f565b9050610987602083018561092d565b610994604083018461092d565b949350505050565b600060208201905081810360008301526109b5816107e1565b9050919050565b600060208201905081810360008301526109d581610821565b9050919050565b600060208201905081810360008301526109f581610887565b9050919050565b60006020820190508181036000830152610a15816108c7565b9050919050565b6000819050602082019050919050565b600081519050919050565b600081519050919050565b600081519050919050565b6000602082019050919050565b600082825260208201905092915050565b600082825260208201905092915050565b600082825260208201905092915050565b6000819050919050565b60005b83811015610ab5578082015181840152602081019050610a9a565b83811115610ac4576000848401525b50505050565b6000601f19601f8301169050919050565b610ae481610a8d565b8114610aef57600080fd5b5056fea365627a7a723158205632e358ae09da1f4ebae173ade16e5241f0c3aa5ba379e324faa20500d07eed6c6578706572696d656e74616cf564736f6c63430005100040",
  "source": "pragma solidity >=0.4.21 <0.7.0;\r\n\r\npragma experimental ABIEncoderV2;\r\n\r\ncontract Election {\r\n    struct Voter {\r\n        bool voted;\r\n        uint optionId;\r\n    }\r\n    \r\n    struct Option {\r\n        string name;\r\n        uint noVotes;\r\n    }\r\n    \r\n    address chairperson;\r\n    mapping(address => Voter) voters;\r\n    Option[] options;\r\n    uint256 deadline = 0;\r\n    \r\n    constructor (string[] memory optionNames) public {\r\n        chairperson = msg.sender;\r\n        for (uint i = 0; i < optionNames.length; i++) {\r\n            options.push(\r\n                Option({\r\n                    name: optionNames[i],\r\n                    noVotes: 0\r\n                }));\r\n        }\r\n    }\r\n    \r\n    function startVoting(uint secTillDeadLine) public {\r\n        require(msg.sender == chairperson, 'You do not have the right to initiate this action!');\r\n        deadline = block.timestamp + secTillDeadLine;\r\n    }\r\n    \r\n    function vote(uint option) public {\r\n        require(block.timestamp <= deadline, 'You are not able to vote!');\r\n        require(option < options.length, 'Invallid option!');\r\n        address voter = msg.sender;\r\n        if (voters[voter].voted == true) {\r\n            options[voters[voter].optionId].noVotes--;\r\n        }\r\n        voters[voter].voted = true;\r\n        voters[voter].optionId = option;\r\n        options[option].noVotes++;\r\n    }\r\n    \r\n    function viewOptions() public view returns (string[] memory) {\r\n        string[] memory _options = new string[](options.length);\r\n        for (uint i = 0; i < options.length; i++) {\r\n            _options[i] = options[i].name;\r\n        }\r\n        return _options;\r\n    }\r\n    \r\n    function viewResults() public view returns (string memory, uint, uint) {\r\n        require(deadline > 0 && block.timestamp > deadline, 'The voting process has not ended yet!');\r\n        uint maxNoVotes = options[0].noVotes;\r\n        uint noVoters = maxNoVotes;\r\n        uint winnerId = 0;\r\n        for (uint i = 1; i < options.length; i++) {\r\n            if (options[i].noVotes > maxNoVotes) {\r\n                maxNoVotes = options[i].noVotes;\r\n                winnerId = i;\r\n            }\r\n            noVoters += options[i].noVotes;\r\n        }\r\n        return (options[winnerId].name, noVoters, maxNoVotes);\r\n    }\r\n}",
  "sourcePath": "C:\\Users\\horat\\Desktop\\BRO\\contracts\\Election.sol",
  "compiler": {
    "name": "solc",
    "version": "0.5.16+commit.9c3226ce.Emscripten.clang"
  },
  "schemaVersion": "3.1.0",
  "updatedAt": "2020-05-05T12:36:42.600Z",
  "devdoc": {
    "methods": {}
  },
  "userdoc": {
    "methods": {}
  }
}