{
  "contractName": "Election",
  "abi": [
    {
      "inputs": [
        {
          "internalType": "string[]",
          "name": "optionNames",
          "type": "string[]"
        }
      ],
      "payable": false,
      "stateMutability": "nonpayable",
      "type": "constructor"
    },
    {
      "constant": true,
      "inputs": [],
      "name": "isVotingOpen",
      "outputs": [
        {
          "internalType": "bool",
          "name": "",
          "type": "bool"
        }
      ],
      "payable": false,
      "stateMutability": "view",
      "type": "function"
    },
    {
      "constant": true,
      "inputs": [],
      "name": "getDeadline",
      "outputs": [
        {
          "internalType": "uint256",
          "name": "",
          "type": "uint256"
        }
      ],
      "payable": false,
      "stateMutability": "view",
      "type": "function"
    },
    {
      "constant": true,
      "inputs": [],
      "name": "getBlockStamp",
      "outputs": [
        {
          "internalType": "uint256",
          "name": "",
          "type": "uint256"
        }
      ],
      "payable": false,
      "stateMutability": "view",
      "type": "function"
    },
    {
      "constant": true,
      "inputs": [
        {
          "internalType": "address",
          "name": "addr",
          "type": "address"
        }
      ],
      "name": "votedAlready",
      "outputs": [
        {
          "components": [
            {
              "internalType": "bool",
              "name": "voted",
              "type": "bool"
            },
            {
              "internalType": "uint256",
              "name": "optionId",
              "type": "uint256"
            }
          ],
          "internalType": "struct Election.Voter",
          "name": "",
          "type": "tuple"
        }
      ],
      "payable": false,
      "stateMutability": "view",
      "type": "function"
    },
    {
      "constant": false,
      "inputs": [
        {
          "internalType": "uint256",
          "name": "secTillDeadLine",
          "type": "uint256"
        }
      ],
      "name": "startVoting",
      "outputs": [],
      "payable": false,
      "stateMutability": "nonpayable",
      "type": "function"
    },
    {
      "constant": false,
      "inputs": [
        {
          "internalType": "uint256",
          "name": "option",
          "type": "uint256"
        }
      ],
      "name": "vote",
      "outputs": [],
      "payable": false,
      "stateMutability": "nonpayable",
      "type": "function"
    },
    {
      "constant": true,
      "inputs": [],
      "name": "viewOptions",
      "outputs": [
        {
          "internalType": "string[]",
          "name": "",
          "type": "string[]"
        }
      ],
      "payable": false,
      "stateMutability": "view",
      "type": "function"
    },
    {
      "constant": true,
      "inputs": [],
      "name": "viewResults",
      "outputs": [
        {
          "internalType": "string",
          "name": "",
          "type": "string"
        },
        {
          "internalType": "uint256",
          "name": "",
          "type": "uint256"
        },
        {
          "internalType": "uint256",
          "name": "",
          "type": "uint256"
        }
      ],
      "payable": false,
      "stateMutability": "view",
      "type": "function"
    },
    {
      "constant": true,
      "inputs": [],
      "name": "showNoVoters",
      "outputs": [
        {
          "internalType": "uint256",
          "name": "",
          "type": "uint256"
        }
      ],
      "payable": false,
      "stateMutability": "view",
      "type": "function"
    },
    {
      "constant": false,
      "inputs": [],
      "name": "stopVoting",
      "outputs": [],
      "payable": false,
      "stateMutability": "nonpayable",
      "type": "function"
    },
    {
      "constant": true,
      "inputs": [],
      "name": "adviserElection",
      "outputs": [
        {
          "internalType": "string",
          "name": "",
          "type": "string"
        }
      ],
      "payable": false,
      "stateMutability": "view",
      "type": "function"
    },
    {
      "constant": false,
      "inputs": [
        {
          "internalType": "uint256",
          "name": "candidate",
          "type": "uint256"
        },
        {
          "internalType": "string",
          "name": "newName",
          "type": "string"
        }
      ],
      "name": "modifyCandidateName",
      "outputs": [],
      "payable": false,
      "stateMutability": "nonpayable",
      "type": "function"
    }
  ],
  "bytecode": "0x6080604052600f600055600060015560006005553480156200002057600080fd5b5060405162001ce938038062001ce98339818101604052620000469190810190620002c2565b33600260006101000a81548173ffffffffffffffffffffffffffffffffffffffff021916908373ffffffffffffffffffffffffffffffffffffffff16021790555060008090505b8151811015620001285760046040518060400160405280848481518110620000b157fe5b6020026020010151815260200160008152509080600181540180825580915050906001820390600052602060002090600202016000909192909190915060008201518160000190805190602001906200010c9291906200013a565b506020820151816001015550505080806001019150506200008d565b5060f0420160058190555050620003c1565b828054600181600116156101000203166002900490600052602060002090601f016020900481019282601f106200017d57805160ff1916838001178555620001ae565b82800160010185558215620001ae579182015b82811115620001ad57825182559160200191906001019062000190565b5b509050620001bd9190620001c1565b5090565b620001e691905b80821115620001e2576000816000905550600101620001c8565b5090565b90565b600082601f830112620001fb57600080fd5b8151620002126200020c8262000335565b62000307565b9150818183526020840193506020810190508360005b838110156200025c578151860162000241888262000266565b84526020840193506020830192505060018101905062000228565b5050505092915050565b600082601f8301126200027857600080fd5b81516200028f62000289826200035e565b62000307565b91508082526020830160208301858383011115620002ac57600080fd5b620002b98382846200038b565b50505092915050565b600060208284031215620002d557600080fd5b600082015167ffffffffffffffff811115620002f057600080fd5b620002fe84828501620001e9565b91505092915050565b6000604051905081810181811067ffffffffffffffff821117156200032b57600080fd5b8060405250919050565b600067ffffffffffffffff8211156200034d57600080fd5b602082029050602081019050919050565b600067ffffffffffffffff8211156200037657600080fd5b601f19601f8301169050602081019050919050565b60005b83811015620003ab5780820151818401526020810190506200038e565b83811115620003bb576000848401525b50505050565b61191880620003d16000396000f3fe608060405234801561001057600080fd5b50600436106100b45760003560e01c8063a89f3d3311610071578063a89f3d3314610167578063c0db3c6014610197578063d55ab095146101b5578063d902ffb0146101d5578063fa7f1bae146101f3578063fab2f86b14610211576100b4565b80630121b93f146100b957806301736c0a146100d55780633d2f5bda146100f15780635f8d96de1461010d578063691422f71461012b578063714aa49714610149575b600080fd5b6100d360048036036100ce9190810190610f8e565b61021b565b005b6100ef60048036036100ea9190810190610fb7565b610465565b005b61010b60048036036101069190810190610f8e565b6105b8565b005b610115610654565b60405161012291906116b9565b60405180910390f35b61013361065e565b60405161014091906116b9565b60405180910390f35b61015161073e565b60405161015e919061151e565b60405180910390f35b610181600480360361017c9190810190610f65565b610976565b60405161018e919061169e565b60405180910390f35b61019f6109f4565b6040516101ac91906114e1565b60405180910390f35b6101bd610b29565b6040516101cc93929190611540565b60405180910390f35b6101dd610d08565b6040516101ea91906116b9565b60405180910390f35b6101fb610d10565b6040516102089190611503565b60405180910390f35b610219610d46565b005b600554421115610260576040517f08c379a00000000000000000000000000000000000000000000000000000000081526004016102579061161e565b60405180910390fd5b60048054905081106102a7576040517f08c379a000000000000000000000000000000000000000000000000000000000815260040161029e906115de565b60405180910390fd5b600033905060011515600360008373ffffffffffffffffffffffffffffffffffffffff1673ffffffffffffffffffffffffffffffffffffffff16815260200190815260200160002060000160009054906101000a900460ff161515141561037e576004600360008373ffffffffffffffffffffffffffffffffffffffff1673ffffffffffffffffffffffffffffffffffffffff168152602001908152602001600020600101548154811061035757fe5b90600052602060002090600202016001016000815480929190600190039190505550610391565b6001600081548092919060010191905055505b6001600360008373ffffffffffffffffffffffffffffffffffffffff1673ffffffffffffffffffffffffffffffffffffffff16815260200190815260200160002060000160006101000a81548160ff02191690831515021790555081600360008373ffffffffffffffffffffffffffffffffffffffff1673ffffffffffffffffffffffffffffffffffffffff168152602001908152602001600020600101819055506004828154811061044057fe5b9060005260206000209060020201600101600081548092919060010191905055505050565b600260009054906101000a900473ffffffffffffffffffffffffffffffffffffffff1673ffffffffffffffffffffffffffffffffffffffff163373ffffffffffffffffffffffffffffffffffffffff16146104f5576040517f08c379a00000000000000000000000000000000000000000000000000000000081526004016104ec9061163e565b60405180910390fd5b60006005541461053a576040517f08c379a0000000000000000000000000000000000000000000000000000000008152600401610531906115be565b60405180910390fd5b6004805490508210610581576040517f08c379a00000000000000000000000000000000000000000000000000000000081526004016105789061165e565b60405180910390fd5b806004838154811061058f57fe5b906000526020600020906002020160000190805190602001906105b3929190610e26565b505050565b600260009054906101000a900473ffffffffffffffffffffffffffffffffffffffff1673ffffffffffffffffffffffffffffffffffffffff163373ffffffffffffffffffffffffffffffffffffffff1614610648576040517f08c379a000000000000000000000000000000000000000000000000000000000815260040161063f9061163e565b60405180910390fd5b80420160058190555050565b6000600554905090565b6000600260009054906101000a900473ffffffffffffffffffffffffffffffffffffffff1673ffffffffffffffffffffffffffffffffffffffff163373ffffffffffffffffffffffffffffffffffffffff16146106f0576040517f08c379a00000000000000000000000000000000000000000000000000000000081526004016106e79061163e565b60405180910390fd5b60006005541415610736576040517f08c379a000000000000000000000000000000000000000000000000000000000815260040161072d9061157e565b60405180910390fd5b600154905090565b6060600260009054906101000a900473ffffffffffffffffffffffffffffffffffffffff1673ffffffffffffffffffffffffffffffffffffffff163373ffffffffffffffffffffffffffffffffffffffff16146107d0576040517f08c379a00000000000000000000000000000000000000000000000000000000081526004016107c79061163e565b60405180910390fd5b60008090506000600554141561081b576040517f08c379a00000000000000000000000000000000000000000000000000000000081526004016108129061157e565b60405180910390fd5b600160026000548161082957fe5b0401600154101561086f576040517f08c379a00000000000000000000000000000000000000000000000000000000081526004016108669061159e565b60405180910390fd5b6000600460008154811061087f57fe5b906000526020600020906002020160010154905060006001905060048054905081101561090a5781600482815481106108b457fe5b90600052602060002090600202016001015411156108ee57600481815481106108d957fe5b90600052602060002090600202016001015491505b60016002600054816108fc57fe5b0401821061090957600192505b5b50600160026000548161091957fe5b0401811061092657600191505b600115158215151415610955576040518060600160405280602e81526020016118a8602e913992505050610973565b60405180606001604052806040815260200161186860409139925050505b90565b61097e610ea6565b600360008373ffffffffffffffffffffffffffffffffffffffff1673ffffffffffffffffffffffffffffffffffffffff1681526020019081526020016000206040518060400160405290816000820160009054906101000a900460ff161515151581526020016001820154815250509050919050565b606080600480549050604051908082528060200260200182016040528015610a3057816020015b6060815260200190600190039081610a1b5790505b50905060008090505b600480549050811015610b215760048181548110610a5357fe5b90600052602060002090600202016000018054600181600116156101000203166002900480601f016020809104026020016040519081016040528092919081815260200182805460018160011615610100020316600290048015610af85780601f10610acd57610100808354040283529160200191610af8565b820191906000526020600020905b815481529060010190602001808311610adb57829003601f168201915b5050505050828281518110610b0957fe5b60200260200101819052508080600101915050610a39565b508091505090565b60606000806000600554118015610b41575060055442115b610b80576040517f08c379a0000000000000000000000000000000000000000000000000000000008152600401610b77906115fe565b60405180910390fd5b60006004600081548110610b9057fe5b9060005260206000209060020201600101549050600081905060008090506000600190505b600480549050811015610c3d578360048281548110610bd057fe5b9060005260206000209060020201600101541115610c0d5760048181548110610bf557fe5b90600052602060002090600202016001015493508091505b60048181548110610c1a57fe5b906000526020600020906002020160010154830192508080600101915050610bb5565b5060048181548110610c4b57fe5b90600052602060002090600202016000018284828054600181600116156101000203166002900480601f016020809104026020016040519081016040528092919081815260200182805460018160011615610100020316600290048015610cf35780601f10610cc857610100808354040283529160200191610cf3565b820191906000526020600020905b815481529060010190602001808311610cd657829003601f168201915b50505050509250955095509550505050909192565b600042905090565b6000806005541480610d2457506001600554145b80610d30575060055442115b15610d3e5760009050610d43565b600190505b90565b600260009054906101000a900473ffffffffffffffffffffffffffffffffffffffff1673ffffffffffffffffffffffffffffffffffffffff163373ffffffffffffffffffffffffffffffffffffffff1614610dd6576040517f08c379a0000000000000000000000000000000000000000000000000000000008152600401610dcd9061163e565b60405180910390fd5b60006005541415610e1c576040517f08c379a0000000000000000000000000000000000000000000000000000000008152600401610e139061167e565b60405180910390fd5b6001600581905550565b828054600181600116156101000203166002900490600052602060002090601f016020900481019282601f10610e6757805160ff1916838001178555610e95565b82800160010185558215610e95579182015b82811115610e94578251825591602001919060010190610e79565b5b509050610ea29190610ec2565b5090565b6040518060400160405280600015158152602001600081525090565b610ee491905b80821115610ee0576000816000905550600101610ec8565b5090565b90565b600081359050610ef681611839565b92915050565b600082601f830112610f0d57600080fd5b8135610f20610f1b82611701565b6116d4565b91508082526020830160208301858383011115610f3c57600080fd5b610f478382846117e6565b50505092915050565b600081359050610f5f81611850565b92915050565b600060208284031215610f7757600080fd5b6000610f8584828501610ee7565b91505092915050565b600060208284031215610fa057600080fd5b6000610fae84828501610f50565b91505092915050565b60008060408385031215610fca57600080fd5b6000610fd885828601610f50565b925050602083013567ffffffffffffffff811115610ff557600080fd5b61100185828601610efc565b9150509250929050565b600061101783836110eb565b905092915050565b600061102a8261173d565b611034818561176b565b9350836020820285016110468561172d565b8060005b858110156110825784840389528151611063858261100b565b945061106e8361175e565b925060208a0199505060018101905061104a565b50829750879550505050505092915050565b61109d816117b0565b82525050565b6110ac816117b0565b82525050565b60006110bd82611753565b6110c7818561178d565b93506110d78185602086016117f5565b6110e081611828565b840191505092915050565b60006110f682611748565b611100818561177c565b93506111108185602086016117f5565b61111981611828565b840191505092915050565b600061113160278361178d565b91507f54686520766f74696e672070726f6365737320686173206e6f7420737461727460008301527f65642079657421000000000000000000000000000000000000000000000000006020830152604082019050919050565b6000611197603f8361178d565b91507f48616c66206f66207468652063616e646964617465732068617665206e6f742060008301527f79657420766f7465642c20492063616e206e6f742061647669736520796f75006020830152604082019050919050565b60006111fd60428361178d565b91507f54686520766f74696e67206861732073746172746564206f7220656e6465642c60008301527f20796f752063616e206e6f74206d6f64696679207468652063616e646964617460208301527f65730000000000000000000000000000000000000000000000000000000000006040830152606082019050919050565b600061128960108361178d565b91507f496e76616c6c6964206f7074696f6e21000000000000000000000000000000006000830152602082019050919050565b60006112c960258361178d565b91507f54686520766f74696e672070726f6365737320686173206e6f7420656e64656460008301527f20796574210000000000000000000000000000000000000000000000000000006020830152604082019050919050565b600061132f60198361178d565b91507f596f7520617265206e6f742061626c6520746f20766f746521000000000000006000830152602082019050919050565b600061136f60328361178d565b91507f596f7520646f206e6f7420686176652074686520726967687420746f20696e6960008301527f7469617465207468697320616374696f6e2100000000000000000000000000006020830152604082019050919050565b60006113d560278361178d565b91507f496e76616c6964206f7074696f6e2c2067697665206d6520612076616c69642060008301527f6e756d62657221000000000000000000000000000000000000000000000000006020830152604082019050919050565b600061143b603f8361178d565b91507f54686520766f74696e672070726f6365737320686173206e6f7420737461727460008301527f6564207965742c20736f20796f752063616e206e6f742073746f7020697421006020830152604082019050919050565b6040820160008201516114aa6000850182611094565b5060208201516114bd60208501826114c3565b50505050565b6114cc816117dc565b82525050565b6114db816117dc565b82525050565b600060208201905081810360008301526114fb818461101f565b905092915050565b600060208201905061151860008301846110a3565b92915050565b6000602082019050818103600083015261153881846110b2565b905092915050565b6000606082019050818103600083015261155a81866110b2565b905061156960208301856114d2565b61157660408301846114d2565b949350505050565b6000602082019050818103600083015261159781611124565b9050919050565b600060208201905081810360008301526115b78161118a565b9050919050565b600060208201905081810360008301526115d7816111f0565b9050919050565b600060208201905081810360008301526115f78161127c565b9050919050565b60006020820190508181036000830152611617816112bc565b9050919050565b6000602082019050818103600083015261163781611322565b9050919050565b6000602082019050818103600083015261165781611362565b9050919050565b60006020820190508181036000830152611677816113c8565b9050919050565b600060208201905081810360008301526116978161142e565b9050919050565b60006040820190506116b36000830184611494565b92915050565b60006020820190506116ce60008301846114d2565b92915050565b6000604051905081810181811067ffffffffffffffff821117156116f757600080fd5b8060405250919050565b600067ffffffffffffffff82111561171857600080fd5b601f19601f8301169050602081019050919050565b6000819050602082019050919050565b600081519050919050565b600081519050919050565b600081519050919050565b6000602082019050919050565b600082825260208201905092915050565b600082825260208201905092915050565b600082825260208201905092915050565b60006117a9826117bc565b9050919050565b60008115159050919050565b600073ffffffffffffffffffffffffffffffffffffffff82169050919050565b6000819050919050565b82818337600083830152505050565b60005b838110156118135780820151818401526020810190506117f8565b83811115611822576000848401525b50505050565b6000601f19601f8301169050919050565b6118428161179e565b811461184d57600080fd5b50565b611859816117dc565b811461186457600080fd5b5056fe496620796f752073746f702074686520656c656374696f6e207269676874206e6f772c2069742077696c6c206e6f742062652061206661697220766f74696e6754686520456c656374696f6e2063616e20656e642c207765206861766520616c726561647920612077696e6e6572a365627a7a72315820eca412526d974188774ebad2c3dab2e918a8e7464d42a215ec75fb150e58fdd96c6578706572696d656e74616cf564736f6c63430005100040",
  "source": "pragma solidity >=0.4.21 <0.7.0;\r\npragma experimental ABIEncoderV2;\r\n\r\ncontract Election {\r\n    struct Voter {\r\n        bool voted;\r\n        uint optionId;\r\n    }\r\n    \r\n    struct Option {\r\n        string name;\r\n        uint noVotes;\r\n    }\r\n    //\r\n    uint maxVoters = 15;\r\n    uint countVoters = 0;\r\n    //\r\n    address chairperson;\r\n    mapping(address => Voter) voters;\r\n    Option[] options;\r\n    uint256 deadline = 0;\r\n    \r\n    constructor (string[] memory optionNames) public {\r\n        chairperson = msg.sender;\r\n        for (uint i = 0; i < optionNames.length; i++) {\r\n            options.push(\r\n                Option({\r\n                    name: optionNames[i],\r\n                    noVotes: 0\r\n                }));\r\n        }\r\n\r\n        deadline = block.timestamp + 240;\r\n    }\r\n\r\n    function isVotingOpen() public view returns (bool){\r\n        if(deadline == 0 || deadline == 1 || block.timestamp > deadline)\r\n            return false;\r\n        return true;\r\n    }\r\n\r\n    function getDeadline() public view returns (uint256){\r\n        return deadline;\r\n    }\r\n\r\n    function getBlockStamp() public view returns (uint256){\r\n        return block.timestamp;\r\n    }\r\n    \r\n    function votedAlready(address addr) public view returns (Voter memory){\r\n        return voters[addr];\r\n    }\r\n    \r\n    function startVoting(uint secTillDeadLine) public {\r\n        require(msg.sender == chairperson, 'You do not have the right to initiate this action!');\r\n        deadline = block.timestamp + secTillDeadLine;\r\n    }\r\n    \r\n    function vote(uint option) public {\r\n        require(block.timestamp <= deadline, 'You are not able to vote!');\r\n        require(option < options.length, 'Invallid option!');\r\n        address voter = msg.sender;\r\n        if (voters[voter].voted == true) {\r\n            options[voters[voter].optionId].noVotes--;\r\n        }\r\n        //\r\n        else{\r\n            countVoters ++; //am numarat cati au votat, indiferent daca si-au schimbat votul\r\n        }\r\n        //\r\n        voters[voter].voted = true;\r\n        voters[voter].optionId = option;\r\n        options[option].noVotes++;\r\n    }\r\n    \r\n    function viewOptions() public view returns (string[] memory) {\r\n        string[] memory _options = new string[](options.length);\r\n        for (uint i = 0; i < options.length; i++) {\r\n            _options[i] = options[i].name;\r\n        }\r\n        return _options;\r\n    }\r\n\r\n\r\n    function viewResults() public view returns (string memory, uint, uint) {\r\n        require(deadline > 0 && block.timestamp > deadline, 'The voting process has not ended yet!');\r\n        uint maxNoVotes = options[0].noVotes;\r\n        uint noVoters = maxNoVotes;\r\n        uint winnerId = 0;\r\n        for (uint i = 1; i < options.length; i++) {\r\n            if (options[i].noVotes > maxNoVotes) {\r\n                maxNoVotes = options[i].noVotes;\r\n                winnerId = i;\r\n            }\r\n            noVoters += options[i].noVotes;\r\n        }\r\n        return (options[winnerId].name, noVoters, maxNoVotes);\r\n    }\r\n    \r\n    function showNoVoters() public view returns (uint){ //cati au votat pana acum, asta poate vedea doar admin-ul\r\n    \r\n        require(msg.sender == chairperson, 'You do not have the right to initiate this action!');\r\n        require(deadline != 0,'The voting process has not started yet!');\r\n        return countVoters;\r\n    }\r\n    \r\n    function stopVoting() public {\r\n        \r\n        require(msg.sender == chairperson, 'You do not have the right to initiate this action!');\r\n        require(deadline != 0,'The voting process has not started yet, so you can not stop it!');\r\n        deadline = 1;\r\n        \r\n    }\r\n    function adviserElection() public view returns(string memory){ //putem opri votul cand stim ca au votat mai mult de jumate din candidati, si toate voturile le are exclusiv cineva\r\n        require(msg.sender == chairperson, 'You do not have the right to initiate this action!');\r\n        bool say = false;\r\n        require(deadline != 0,'The voting process has not started yet!');\r\n        require(countVoters >= (maxVoters/2 + 1),'Half of the candidates have not yet voted, I can not advise you');\r\n        uint maxVotes = options[0].noVotes;\r\n        for (uint i = 1; i < options.length; i++ ){ //are warning din cauza break-ului\r\n            if(options[i].noVotes > maxVotes)\r\n                maxVotes = options[i].noVotes;\r\n                if(maxVotes >= (maxVoters/2 + 1))\r\n                        say = true;\r\n                        break; //iesim, nu mai are rost sa votam\r\n        }\r\n        if(maxVotes >= (maxVoters/2 +1))\r\n            say = true;\r\n        if(say == true)\r\n            return \"The Election can end, we have already a winner\";\r\n        else\r\n            return \"If you stop the election right now, it will not be a fair voting\";\r\n        \r\n    }\r\n    \r\n    function modifyCandidateName(uint candidate,string memory newName)public{\r\n        \r\n        require(msg.sender == chairperson, 'You do not have the right to initiate this action!');\r\n        require(deadline == 0  ,'The voting has started or ended, you can not modify the candidates');\r\n        require(candidate < options.length, 'Invalid option, give me a valid number!');\r\n        options[candidate].name = newName;\r\n        \r\n    }\r\n    \r\n}",
  "sourcePath": "C:\\Users\\horat\\Desktop\\BRO\\contracts\\Election.sol",
  "compiler": {
    "name": "solc",
    "version": "0.5.16+commit.9c3226ce.Emscripten.clang"
  },
  "schemaVersion": "3.1.0",
  "updatedAt": "2020-05-06T10:37:11.980Z",
  "networkType": "ethereum",
  "devdoc": {
    "methods": {}
  },
  "userdoc": {
    "methods": {}
  }
}